{
  "_format": "hh3-artifact-1",
  "contractName": "DocumentVerification",
  "sourceName": "contracts/DocumentVerification.sol",
  "abi": [
    {
      "anonymous": false,
      "inputs": [
        {
          "indexed": true,
          "internalType": "bytes32",
          "name": "documentHash",
          "type": "bytes32"
        },
        {
          "indexed": false,
          "internalType": "string",
          "name": "ipfsCID",
          "type": "string"
        },
        {
          "indexed": true,
          "internalType": "address",
          "name": "uploader",
          "type": "address"
        },
        {
          "indexed": false,
          "internalType": "uint256",
          "name": "timestamp",
          "type": "uint256"
        },
        {
          "indexed": true,
          "internalType": "bytes32",
          "name": "txHash",
          "type": "bytes32"
        }
      ],
      "name": "DocumentRecorded",
      "type": "event"
    },
    {
      "anonymous": false,
      "inputs": [
        {
          "indexed": true,
          "internalType": "bytes32",
          "name": "documentHash",
          "type": "bytes32"
        },
        {
          "indexed": true,
          "internalType": "address",
          "name": "verifier",
          "type": "address"
        },
        {
          "indexed": false,
          "internalType": "bool",
          "name": "isValid",
          "type": "bool"
        },
        {
          "indexed": false,
          "internalType": "uint256",
          "name": "timestamp",
          "type": "uint256"
        }
      ],
      "name": "DocumentVerified",
      "type": "event"
    },
    {
      "inputs": [
        {
          "internalType": "bytes32",
          "name": "_documentHash",
          "type": "bytes32"
        }
      ],
      "name": "documentExists",
      "outputs": [
        {
          "internalType": "bool",
          "name": "",
          "type": "bool"
        }
      ],
      "stateMutability": "view",
      "type": "function"
    },
    {
      "inputs": [
        {
          "internalType": "bytes32",
          "name": "_documentHash",
          "type": "bytes32"
        }
      ],
      "name": "getDocument",
      "outputs": [
        {
          "internalType": "string",
          "name": "ipfsCID",
          "type": "string"
        },
        {
          "internalType": "address",
          "name": "uploader",
          "type": "address"
        },
        {
          "internalType": "uint256",
          "name": "timestamp",
          "type": "uint256"
        },
        {
          "internalType": "string",
          "name": "metadata",
          "type": "string"
        }
      ],
      "stateMutability": "view",
      "type": "function"
    },
    {
      "inputs": [
        {
          "internalType": "uint256",
          "name": "_index",
          "type": "uint256"
        }
      ],
      "name": "getDocumentHashByIndex",
      "outputs": [
        {
          "internalType": "bytes32",
          "name": "",
          "type": "bytes32"
        }
      ],
      "stateMutability": "view",
      "type": "function"
    },
    {
      "inputs": [
        {
          "internalType": "address",
          "name": "_uploader",
          "type": "address"
        }
      ],
      "name": "getDocumentsByUploader",
      "outputs": [
        {
          "internalType": "bytes32[]",
          "name": "",
          "type": "bytes32[]"
        }
      ],
      "stateMutability": "view",
      "type": "function"
    },
    {
      "inputs": [
        {
          "internalType": "uint256",
          "name": "_offset",
          "type": "uint256"
        },
        {
          "internalType": "uint256",
          "name": "_limit",
          "type": "uint256"
        }
      ],
      "name": "getDocumentsPaginated",
      "outputs": [
        {
          "internalType": "bytes32[]",
          "name": "hashes",
          "type": "bytes32[]"
        },
        {
          "internalType": "uint256",
          "name": "total",
          "type": "uint256"
        }
      ],
      "stateMutability": "view",
      "type": "function"
    },
    {
      "inputs": [],
      "name": "getTotalDocuments",
      "outputs": [
        {
          "internalType": "uint256",
          "name": "",
          "type": "uint256"
        }
      ],
      "stateMutability": "view",
      "type": "function"
    },
    {
      "inputs": [
        {
          "internalType": "bytes32",
          "name": "_documentHash",
          "type": "bytes32"
        },
        {
          "internalType": "string",
          "name": "_ipfsCID",
          "type": "string"
        },
        {
          "internalType": "string",
          "name": "_metadata",
          "type": "string"
        }
      ],
      "name": "uploadDocument",
      "outputs": [],
      "stateMutability": "nonpayable",
      "type": "function"
    },
    {
      "inputs": [
        {
          "internalType": "bytes32",
          "name": "_documentHash",
          "type": "bytes32"
        }
      ],
      "name": "verifyDocument",
      "outputs": [
        {
          "internalType": "bool",
          "name": "isValid",
          "type": "bool"
        },
        {
          "internalType": "string",
          "name": "ipfsCID",
          "type": "string"
        },
        {
          "internalType": "address",
          "name": "uploader",
          "type": "address"
        },
        {
          "internalType": "uint256",
          "name": "timestamp",
          "type": "uint256"
        },
        {
          "internalType": "string",
          "name": "metadata",
          "type": "string"
        }
      ],
      "stateMutability": "nonpayable",
      "type": "function"
    }
  ],
  "bytecode": "0x6080604052348015600e575f5ffd5b50610e518061001c5f395ff3fe608060405234801561000f575f5ffd5b5060043610610085575f3560e01c8063cbfe6d4111610058578063cbfe6d411461010b578063e90e7ad414610140578063ebdd201814610148578063fe35089f14610169575f5ffd5b8063300f1000146100895780637f232ffd1461009e5780639f788d10146100c7578063b10d6b41146100e8575b5f5ffd5b61009c610097366004610a77565b61018d565b005b6100b16100ac366004610ae4565b610421565b6040516100be9190610b4b565b60405180910390f35b6100da6100d5366004610b5d565b61048a565b6040519081526020016100be565b6100fb6100f6366004610b5d565b6104f6565b6040516100be9493929190610ba2565b610130610119366004610b5d565b5f9081526020819052604090206005015460ff1690565b60405190151581526020016100be565b6002546100da565b61015b610156366004610be7565b6106fb565b6040516100be929190610c07565b61017c610177366004610b5d565b6107e6565b6040516100be959493929190610c28565b5f83815260208190526040902060050154839060ff16156101f55760405162461bcd60e51b815260206004820152601760248201527f446f63756d656e7420616c72656164792065786973747300000000000000000060448201526064015b60405180910390fd5b8361023a5760405162461bcd60e51b8152602060048201526015602482015274092dcecc2d8d2c840c8dec6eadacadce840d0c2e6d605b1b60448201526064016101ec565b5f83511161028a5760405162461bcd60e51b815260206004820152601860248201527f49504653204349442063616e6e6f7420626520656d707479000000000000000060448201526064016101ec565b6040805160c0810182528581526020808201868152338385015242606084015260808301869052600160a084018190525f898152928390529390912082518155905191928392908201906102de9082610cfa565b5060408201516002820180546001600160a01b0319166001600160a01b0390921691909117905560608201516003820155608082015160048201906103239082610cfa565b5060a091909101516005909101805491151560ff19909216919091179055335f81815260016020818152604080842080548085018255908552828520018a90556002805493840181559093527f405787fa12a823e0f2b7631cc41b3ba8828b3321ca811111fa75cd3aa3bb5ace909101889055815190810188905260609290921b6bffffffffffffffffffffffff19169082015242605482015260740160405160208183030381529060405280519060200120336001600160a01b0316867fb042af61513a8068b07d87a5375e54c75363ad207218008b66bf01453ce8c12d8742604051610412929190610db5565b60405180910390a45050505050565b6001600160a01b0381165f9081526001602090815260409182902080548351818402810184019094528084526060939283018282801561047e57602002820191905f5260205f20905b81548152602001906001019080831161046a575b50505050509050919050565b6002545f9082106104d35760405162461bcd60e51b8152602060048201526013602482015272496e646578206f7574206f6620626f756e647360681b60448201526064016101ec565b600282815481106104e6576104e6610dc7565b905f5260205f2001549050919050565b5f818152602081905260408120600501546060919081908390859060ff166105605760405162461bcd60e51b815260206004820152601760248201527f446f63756d656e7420646f6573206e6f7420657869737400000000000000000060448201526064016101ec565b5f5f5f8881526020019081526020015f206040518060c00160405290815f820154815260200160018201805461059590610c76565b80601f01602080910402602001604051908101604052809291908181526020018280546105c190610c76565b801561060c5780601f106105e35761010080835404028352916020019161060c565b820191905f5260205f20905b8154815290600101906020018083116105ef57829003601f168201915b505050918352505060028201546001600160a01b031660208201526003820154604082015260048201805460609092019161064690610c76565b80601f016020809104026020016040519081016040528092919081815260200182805461067290610c76565b80156106bd5780601f10610694576101008083540402835291602001916106bd565b820191905f5260205f20905b8154815290600101906020018083116106a057829003601f168201915b50505091835250506005919091015460ff16151560209182015281015160408201516060830151608090930151919a90995091975095509350505050565b60025460609080841061071d57604080515f81526020810190915291506107df565b5f6107288486610def565b9050818111156107355750805b5f6107408683610e08565b90508067ffffffffffffffff81111561075b5761075b6109d8565b604051908082528060200260200182016040528015610784578160200160208202803683370190505b5093505f5b818110156107db57600261079d8289610def565b815481106107ad576107ad610dc7565b905f5260205f2001548582815181106107c8576107c8610dc7565b6020908102919091010152600101610789565b5050505b9250929050565b5f60605f5f60605f5f5f8881526020019081526020015f206040518060c00160405290815f820154815260200160018201805461082290610c76565b80601f016020809104026020016040519081016040528092919081815260200182805461084e90610c76565b80156108995780601f1061087057610100808354040283529160200191610899565b820191905f5260205f20905b81548152906001019060200180831161087c57829003601f168201915b505050918352505060028201546001600160a01b03166020820152600382015460408201526004820180546060909201916108d390610c76565b80601f01602080910402602001604051908101604052809291908181526020018280546108ff90610c76565b801561094a5780601f106109215761010080835404028352916020019161094a565b820191905f5260205f20905b81548152906001019060200180831161092d57829003601f168201915b50505091835250506005919091015460ff16151560209091015260a081015196509050851561099057806020015194508060400151935080606001519250806080015191505b604080518715158152426020820152339189917f9e1f9053e2a9fd44d20b9a1a32ce11635d33522b00bf00d0dc6371af05361000910160405180910390a35091939590929450565b634e487b7160e01b5f52604160045260245ffd5b5f82601f8301126109fb575f5ffd5b813567ffffffffffffffff811115610a1557610a156109d8565b604051601f8201601f19908116603f0116810167ffffffffffffffff81118282101715610a4457610a446109d8565b604052818152838201602001851015610a5b575f5ffd5b816020850160208301375f918101602001919091529392505050565b5f5f5f60608486031215610a89575f5ffd5b83359250602084013567ffffffffffffffff811115610aa6575f5ffd5b610ab2868287016109ec565b925050604084013567ffffffffffffffff811115610ace575f5ffd5b610ada868287016109ec565b9150509250925092565b5f60208284031215610af4575f5ffd5b81356001600160a01b0381168114610b0a575f5ffd5b9392505050565b5f8151808452602084019350602083015f5b82811015610b41578151865260209586019590910190600101610b23565b5093949350505050565b602081525f610b0a6020830184610b11565b5f60208284031215610b6d575f5ffd5b5035919050565b5f81518084528060208401602086015e5f602082860101526020601f19601f83011685010191505092915050565b608081525f610bb46080830187610b74565b6001600160a01b0386166020840152604083018590528281036060840152610bdc8185610b74565b979650505050505050565b5f5f60408385031215610bf8575f5ffd5b50508035926020909101359150565b604081525f610c196040830185610b11565b90508260208301529392505050565b851515815260a060208201525f610c4260a0830187610b74565b6001600160a01b0386166040840152606083018590528281036080840152610c6a8185610b74565b98975050505050505050565b600181811c90821680610c8a57607f821691505b602082108103610ca857634e487b7160e01b5f52602260045260245ffd5b50919050565b601f821115610cf557805f5260205f20601f840160051c81016020851015610cd35750805b601f840160051c820191505b81811015610cf2575f8155600101610cdf565b50505b505050565b815167ffffffffffffffff811115610d1457610d146109d8565b610d2881610d228454610c76565b84610cae565b6020601f821160018114610d5a575f8315610d435750848201515b5f19600385901b1c1916600184901b178455610cf2565b5f84815260208120601f198516915b82811015610d895787850151825560209485019460019092019101610d69565b5084821015610da657868401515f19600387901b60f8161c191681555b50505050600190811b01905550565b604081525f610c196040830185610b74565b634e487b7160e01b5f52603260045260245ffd5b634e487b7160e01b5f52601160045260245ffd5b80820180821115610e0257610e02610ddb565b92915050565b81810381811115610e0257610e02610ddb56fea2646970667358221220c3cbdf26d80115a769c1ddadd44a7d960390784651d867736a88f79ee5f8608a64736f6c634300081c0033",
  "linkReferences": {},
  "deployedLinkReferences": {},
  "immutableReferences": {},
  "inputSourceName": "project/contracts/DocumentVerification.sol",
  "buildInfoId": "solc-0_8_28-0fe2bce8868cedc0b4b8c5b94c6c362020e50984"
}